{
  "contractName": "Flashloan",
  "abi": [
    {
      "inputs": [
        {
          "internalType": "address",
          "name": "_pancakeFactory",
          "type": "address"
        },
        {
          "internalType": "address",
          "name": "_bakeryRouter",
          "type": "address"
        },
        {
          "internalType": "address",
          "name": "_pancakeRouter02",
          "type": "address"
        }
      ],
      "stateMutability": "nonpayable",
      "type": "constructor"
    },
    {
      "inputs": [],
      "name": "bakeryRouter",
      "outputs": [
        {
          "internalType": "contract IPancakeRouter02",
          "name": "",
          "type": "address"
        }
      ],
      "stateMutability": "view",
      "type": "function",
      "constant": true
    },
    {
      "inputs": [],
      "name": "pancakeFactory",
      "outputs": [
        {
          "internalType": "contract IPancakeFactory",
          "name": "",
          "type": "address"
        }
      ],
      "stateMutability": "view",
      "type": "function",
      "constant": true
    },
    {
      "inputs": [],
      "name": "pancakeRouter",
      "outputs": [
        {
          "internalType": "contract IPancakeRouter02",
          "name": "",
          "type": "address"
        }
      ],
      "stateMutability": "view",
      "type": "function",
      "constant": true
    },
    {
      "inputs": [
        {
          "internalType": "address",
          "name": "token0",
          "type": "address"
        },
        {
          "internalType": "address",
          "name": "token1",
          "type": "address"
        },
        {
          "internalType": "uint256",
          "name": "amount0",
          "type": "uint256"
        },
        {
          "internalType": "uint256",
          "name": "amount1",
          "type": "uint256"
        },
        {
          "internalType": "enum Flashloan.Direction",
          "name": "_direction",
          "type": "uint8"
        },
        {
          "internalType": "uint256",
          "name": "repayAmount",
          "type": "uint256"
        }
      ],
      "name": "startArbitrage",
      "outputs": [],
      "stateMutability": "nonpayable",
      "type": "function"
    },
    {
      "inputs": [
        {
          "internalType": "address",
          "name": "_sender",
          "type": "address"
        },
        {
          "internalType": "uint256",
          "name": "_amount0",
          "type": "uint256"
        },
        {
          "internalType": "uint256",
          "name": "_amount1",
          "type": "uint256"
        },
        {
          "internalType": "bytes",
          "name": "data",
          "type": "bytes"
        }
      ],
      "name": "pancakeCall",
      "outputs": [],
      "stateMutability": "nonpayable",
      "type": "function"
    }
  ],
  "bytecode": "0x60806040523480156200001157600080fd5b50604051620024fb380380620024fb83398181016040528101906200003791906200015a565b82600260006101000a81548173ffffffffffffffffffffffffffffffffffffffff021916908373ffffffffffffffffffffffffffffffffffffffff160217905550816000806101000a81548173ffffffffffffffffffffffffffffffffffffffff021916908373ffffffffffffffffffffffffffffffffffffffff16021790555080600160006101000a81548173ffffffffffffffffffffffffffffffffffffffff021916908373ffffffffffffffffffffffffffffffffffffffff16021790555082600360006101000a81548173ffffffffffffffffffffffffffffffffffffffff021916908373ffffffffffffffffffffffffffffffffffffffff160217905550505050620001fe565b6000815190506200015481620001e4565b92915050565b6000806000606084860312156200017057600080fd5b6000620001808682870162000143565b9350506020620001938682870162000143565b9250506040620001a68682870162000143565b9150509250925092565b6000620001bd82620001c4565b9050919050565b600073ffffffffffffffffffffffffffffffffffffffff82169050919050565b620001ef81620001b0565b8114620001fb57600080fd5b50565b6122ed806200020e6000396000f3fe608060405234801561001057600080fd5b50600436106100575760003560e01c8063848008121461005c578063a6fc90f714610078578063c21ebd0714610094578063d8f36705146100b2578063e0f1c9c5146100d0575b600080fd5b610076600480360381019061007191906118be565b6100ee565b005b610092600480360381019061008d9190611835565b611160565b005b61009c611385565b6040516100a99190611e43565b60405180910390f35b6100ba6113ab565b6040516100c79190611e43565b60405180910390f35b6100d86113d0565b6040516100e59190611e28565b60405180910390f35b6100f6611596565b60048054600181600116156101000203166002900480601f01602080910402602001604051908101604052809291908181526020018280546001816001161561010002031660029004801561018c5780601f106101615761010080835404028352916020019161018c565b820191906000526020600020905b81548152906001019060200180831161016f57829003601f168201915b50505050508060200190518101906101a491906119a8565b905060008086146101b557856101b7565b845b905060003373ffffffffffffffffffffffffffffffffffffffff16630dfe16816040518163ffffffff1660e01b815260040160206040518083038186803b15801561020157600080fd5b505afa158015610215573d6000803e3d6000fd5b505050506040513d601f19601f82011682018060405250810190610239919061180c565b905060003373ffffffffffffffffffffffffffffffffffffffff1663d21220a76040518163ffffffff1660e01b815260040160206040518083038186803b15801561028357600080fd5b505afa158015610297573d6000803e3d6000fd5b505050506040513d601f19601f820116820180604052508101906102bb919061180c565b90506102ea600360009054906101000a900473ffffffffffffffffffffffffffffffffffffffff1683836113f6565b73ffffffffffffffffffffffffffffffffffffffff163373ffffffffffffffffffffffffffffffffffffffff1614610357576040517f08c379a000000000000000000000000000000000000000000000000000000000815260040161034e90611e5e565b60405180910390fd5b60008814806103665750600087145b61036f57600080fd5b600080891461037e5782610380565b815b90506000600181111561038f57fe5b8560000151600181111561039f57fe5b14156109a4578073ffffffffffffffffffffffffffffffffffffffff1663095ea7b36000809054906101000a900473ffffffffffffffffffffffffffffffffffffffff16866040518363ffffffff1660e01b8152600401610401929190611dff565b602060405180830381600087803b15801561041b57600080fd5b505af115801561042f573d6000803e3d6000fd5b505050506040513d601f19601f82011682018060405250810190610453919061197f565b506060600267ffffffffffffffff8111801561046e57600080fd5b5060405190808252806020026020018201604052801561049d5781602001602082028036833780820191505090505b50905083816000815181106104ae57fe5b602002602001019073ffffffffffffffffffffffffffffffffffffffff16908173ffffffffffffffffffffffffffffffffffffffff168152505082816001815181106104f657fe5b602002602001019073ffffffffffffffffffffffffffffffffffffffff16908173ffffffffffffffffffffffffffffffffffffffff168152505060606000809054906101000a900473ffffffffffffffffffffffffffffffffffffffff1673ffffffffffffffffffffffffffffffffffffffff1663d06ca61f87846040518363ffffffff1660e01b815260040161058e929190611ef9565b60006040518083038186803b1580156105a657600080fd5b505afa1580156105ba573d6000803e3d6000fd5b505050506040513d6000823e3d601f19601f820116820180604052508101906105e3919061193e565b90506000809054906101000a900473ffffffffffffffffffffffffffffffffffffffff1673ffffffffffffffffffffffffffffffffffffffff166318cbafe58473ffffffffffffffffffffffffffffffffffffffff166370a08231306040518263ffffffff1660e01b815260040161065b9190611d92565b60206040518083038186803b15801561067357600080fd5b505afa158015610687573d6000803e3d6000fd5b505050506040513d601f19601f820116820180604052508101906106ab91906119d1565b836001815181106106b857fe5b60200260200101518530426040518663ffffffff1660e01b81526004016106e3959493929190611fc1565b600060405180830381600087803b1580156106fd57600080fd5b505af1158015610711573d6000803e3d6000fd5b505050506040513d6000823e3d601f19601f8201168201806040525081019061073a919061193e565b506060600267ffffffffffffffff8111801561075557600080fd5b506040519080825280602002602001820160405280156107845781602001602082028036833780820191505090505b509050848160008151811061079557fe5b602002602001019073ffffffffffffffffffffffffffffffffffffffff16908173ffffffffffffffffffffffffffffffffffffffff168152505085816001815181106107dd57fe5b602002602001019073ffffffffffffffffffffffffffffffffffffffff16908173ffffffffffffffffffffffffffffffffffffffff16815250506060600160009054906101000a900473ffffffffffffffffffffffffffffffffffffffff1673ffffffffffffffffffffffffffffffffffffffff1663d06ca61f47846040518363ffffffff1660e01b8152600401610876929190611ef9565b60006040518083038186803b15801561088e57600080fd5b505afa1580156108a2573d6000803e3d6000fd5b505050506040513d6000823e3d601f19601f820116820180604052508101906108cb919061193e565b9050600160009054906101000a900473ffffffffffffffffffffffffffffffffffffffff1673ffffffffffffffffffffffffffffffffffffffff16637ff36ab5478360018151811061091957fe5b60200260200101518530426040518663ffffffff1660e01b81526004016109439493929190611f29565b6000604051808303818588803b15801561095c57600080fd5b505af1158015610970573d6000803e3d6000fd5b50505050506040513d6000823e3d601f19601f8201168201806040525081019061099a919061193e565b5050505050610fa0565b8073ffffffffffffffffffffffffffffffffffffffff1663095ea7b3600160009054906101000a900473ffffffffffffffffffffffffffffffffffffffff16866040518363ffffffff1660e01b8152600401610a01929190611dff565b602060405180830381600087803b158015610a1b57600080fd5b505af1158015610a2f573d6000803e3d6000fd5b505050506040513d601f19601f82011682018060405250810190610a53919061197f565b506060600267ffffffffffffffff81118015610a6e57600080fd5b50604051908082528060200260200182016040528015610a9d5781602001602082028036833780820191505090505b5090508381600081518110610aae57fe5b602002602001019073ffffffffffffffffffffffffffffffffffffffff16908173ffffffffffffffffffffffffffffffffffffffff16815250508281600181518110610af657fe5b602002602001019073ffffffffffffffffffffffffffffffffffffffff16908173ffffffffffffffffffffffffffffffffffffffff16815250506060600160009054906101000a900473ffffffffffffffffffffffffffffffffffffffff1673ffffffffffffffffffffffffffffffffffffffff1663d06ca61f87846040518363ffffffff1660e01b8152600401610b8f929190611ef9565b60006040518083038186803b158015610ba757600080fd5b505afa158015610bbb573d6000803e3d6000fd5b505050506040513d6000823e3d601f19601f82011682018060405250810190610be4919061193e565b9050600160009054906101000a900473ffffffffffffffffffffffffffffffffffffffff1673ffffffffffffffffffffffffffffffffffffffff166318cbafe58473ffffffffffffffffffffffffffffffffffffffff166370a08231306040518263ffffffff1660e01b8152600401610c5d9190611d92565b60206040518083038186803b158015610c7557600080fd5b505afa158015610c89573d6000803e3d6000fd5b505050506040513d601f19601f82011682018060405250810190610cad91906119d1565b83600181518110610cba57fe5b60200260200101518530426040518663ffffffff1660e01b8152600401610ce5959493929190611fc1565b600060405180830381600087803b158015610cff57600080fd5b505af1158015610d13573d6000803e3d6000fd5b505050506040513d6000823e3d601f19601f82011682018060405250810190610d3c919061193e565b506060600267ffffffffffffffff81118015610d5757600080fd5b50604051908082528060200260200182016040528015610d865781602001602082028036833780820191505090505b5090508481600081518110610d9757fe5b602002602001019073ffffffffffffffffffffffffffffffffffffffff16908173ffffffffffffffffffffffffffffffffffffffff16815250508581600181518110610ddf57fe5b602002602001019073ffffffffffffffffffffffffffffffffffffffff16908173ffffffffffffffffffffffffffffffffffffffff168152505060606000809054906101000a900473ffffffffffffffffffffffffffffffffffffffff1673ffffffffffffffffffffffffffffffffffffffff1663d06ca61f47846040518363ffffffff1660e01b8152600401610e77929190611ef9565b60006040518083038186803b158015610e8f57600080fd5b505afa158015610ea3573d6000803e3d6000fd5b505050506040513d6000823e3d601f19601f82011682018060405250810190610ecc919061193e565b90506000809054906101000a900473ffffffffffffffffffffffffffffffffffffffff1673ffffffffffffffffffffffffffffffffffffffff16637ff36ab54783600181518110610f1957fe5b60200260200101518530426040518663ffffffff1660e01b8152600401610f439493929190611f29565b6000604051808303818588803b158015610f5c57600080fd5b505af1158015610f70573d6000803e3d6000fd5b50505050506040513d6000823e3d601f19601f82011682018060405250810190610f9a919061193e565b50505050505b600085602001518273ffffffffffffffffffffffffffffffffffffffff166370a08231306040518263ffffffff1660e01b8152600401610fe09190611d92565b60206040518083038186803b158015610ff857600080fd5b505afa15801561100c573d6000803e3d6000fd5b505050506040513d601f19601f8201168201806040525081019061103091906119d1565b0390508173ffffffffffffffffffffffffffffffffffffffff1663a9059cbb3388602001516040518363ffffffff1660e01b8152600401611072929190611dad565b602060405180830381600087803b15801561108c57600080fd5b505af11580156110a0573d6000803e3d6000fd5b505050506040513d601f19601f820116820180604052508101906110c4919061197f565b508173ffffffffffffffffffffffffffffffffffffffff1663a9059cbb32836040518363ffffffff1660e01b8152600401611100929190611dad565b602060405180830381600087803b15801561111a57600080fd5b505af115801561112e573d6000803e3d6000fd5b505050506040513d601f19601f82011682018060405250810190611152919061197f565b505050505050505050505050565b604051806040016040528083600181111561117757fe5b8152602001828152506040516020016111909190611ede565b604051602081830303815290604052600490805190602001906111b49291906115bb565b506000600260009054906101000a900473ffffffffffffffffffffffffffffffffffffffff1673ffffffffffffffffffffffffffffffffffffffff1663e6a4390588886040518363ffffffff1660e01b8152600401611214929190611dd6565b60206040518083038186803b15801561122c57600080fd5b505afa158015611240573d6000803e3d6000fd5b505050506040513d601f19601f82011682018060405250810190611264919061180c565b9050600073ffffffffffffffffffffffffffffffffffffffff168173ffffffffffffffffffffffffffffffffffffffff1614156112d6576040517f08c379a00000000000000000000000000000000000000000000000000000000081526004016112cd90611ebe565b60405180910390fd5b8073ffffffffffffffffffffffffffffffffffffffff1663022c0d9f8686306040518060400160405280600981526020017f6e6f7420656d70747900000000000000000000000000000000000000000000008152506040518563ffffffff1660e01b815260040161134a9493929190611f75565b600060405180830381600087803b15801561136457600080fd5b505af1158015611378573d6000803e3d6000fd5b5050505050505050505050565b600160009054906101000a900473ffffffffffffffffffffffffffffffffffffffff1681565b6000809054906101000a900473ffffffffffffffffffffffffffffffffffffffff1681565b600260009054906101000a900473ffffffffffffffffffffffffffffffffffffffff1681565b60008060006114058585611468565b9150915085828260405160200161141d929190611d24565b60405160208183030381529060405280519060200120604051602001611444929190611d50565b6040516020818303038152906040528051906020012060001c925050509392505050565b6000808273ffffffffffffffffffffffffffffffffffffffff168473ffffffffffffffffffffffffffffffffffffffff1614156114da576040517f08c379a00000000000000000000000000000000000000000000000000000000081526004016114d190611e7e565b60405180910390fd5b8273ffffffffffffffffffffffffffffffffffffffff168473ffffffffffffffffffffffffffffffffffffffff1610611514578284611517565b83835b8092508193505050600073ffffffffffffffffffffffffffffffffffffffff168273ffffffffffffffffffffffffffffffffffffffff16141561158f576040517f08c379a000000000000000000000000000000000000000000000000000000000815260040161158690611e9e565b60405180910390fd5b9250929050565b6040518060400160405280600060018111156115ae57fe5b8152602001600081525090565b828054600181600116156101000203166002900490600052602060002090601f016020900481019282601f106115fc57805160ff191683800117855561162a565b8280016001018555821561162a579182015b8281111561162957825182559160200191906001019061160e565b5b509050611637919061163b565b5090565b61165d91905b80821115611659576000816000905550600101611641565b5090565b90565b60008135905061166f81612262565b92915050565b60008151905061168481612262565b92915050565b600082601f83011261169b57600080fd5b81516116ae6116a982612048565b61201b565b915081818352602084019350602081019050838560208402820111156116d357600080fd5b60005b8381101561170357816116e988826117f7565b8452602084019350602083019250506001810190506116d6565b5050505092915050565b60008151905061171c81612279565b92915050565b60008083601f84011261173457600080fd5b8235905067ffffffffffffffff81111561174d57600080fd5b60208301915083600182028301111561176557600080fd5b9250929050565b60008135905061177b81612290565b92915050565b60008151905061179081612290565b92915050565b6000604082840312156117a857600080fd5b6117b2604061201b565b905060006117c284828501611781565b60008301525060206117d6848285016117f7565b60208301525092915050565b6000813590506117f1816122a0565b92915050565b600081519050611806816122a0565b92915050565b60006020828403121561181e57600080fd5b600061182c84828501611675565b91505092915050565b60008060008060008060c0878903121561184e57600080fd5b600061185c89828a01611660565b965050602061186d89828a01611660565b955050604061187e89828a016117e2565b945050606061188f89828a016117e2565b93505060806118a089828a0161176c565b92505060a06118b189828a016117e2565b9150509295509295509295565b6000806000806000608086880312156118d657600080fd5b60006118e488828901611660565b95505060206118f5888289016117e2565b9450506040611906888289016117e2565b935050606086013567ffffffffffffffff81111561192357600080fd5b61192f88828901611722565b92509250509295509295909350565b60006020828403121561195057600080fd5b600082015167ffffffffffffffff81111561196a57600080fd5b6119768482850161168a565b91505092915050565b60006020828403121561199157600080fd5b600061199f8482850161170d565b91505092915050565b6000604082840312156119ba57600080fd5b60006119c884828501611796565b91505092915050565b6000602082840312156119e357600080fd5b60006119f1848285016117f7565b91505092915050565b6000611a068383611a21565b60208301905092915050565b611a1b81612146565b82525050565b611a2a816120e1565b82525050565b611a39816120e1565b82525050565b611a50611a4b826120e1565b612209565b82525050565b6000611a6182612080565b611a6b81856120a3565b9350611a7683612070565b8060005b83811015611aa7578151611a8e88826119fa565b9750611a9983612096565b925050600181019050611a7a565b5085935050505092915050565b611ac5611ac0826120ff565b61221b565b82525050565b6000611ad68261208b565b611ae081856120b4565b9350611af08185602086016121d6565b611af981612237565b840191505092915050565b611b0d81612158565b82525050565b611b1c8161217c565b82525050565b611b2b816121a0565b82525050565b6000611b3e600c836120c5565b91507f556e617574686f72697a656400000000000000000000000000000000000000006000830152602082019050919050565b6000611b7e6023836120c5565b91507f50616e63616b654c6962726172793a204944454e544943414c5f41444452455360008301527f53455300000000000000000000000000000000000000000000000000000000006020830152604082019050919050565b6000611be46001836120d6565b91507fff000000000000000000000000000000000000000000000000000000000000006000830152600182019050919050565b6000611c24601c836120c5565b91507f50616e63616b654c6962726172793a205a45524f5f41444452455353000000006000830152602082019050919050565b6000611c646018836120c5565b91507f5468697320706f6f6c20646f6573206e6f7420657869737400000000000000006000830152602082019050919050565b6000611ca46020836120d6565b91507fd0d4c4cd0848c93cb4fd1f498d7013ee6bfb25783ea21593d5834f5d250ece666000830152602082019050919050565b604082016000820151611ced6000850182611b22565b506020820151611d006020850182611d06565b50505050565b611d0f8161213c565b82525050565b611d1e8161213c565b82525050565b6000611d308285611a3f565b601482019150611d408284611a3f565b6014820191508190509392505050565b6000611d5b82611bd7565b9150611d678285611a3f565b601482019150611d778284611ab4565b602082019150611d8682611c97565b91508190509392505050565b6000602082019050611da76000830184611a30565b92915050565b6000604082019050611dc26000830185611a12565b611dcf6020830184611d15565b9392505050565b6000604082019050611deb6000830185611a30565b611df86020830184611a30565b9392505050565b6000604082019050611e146000830185611a30565b611e216020830184611d15565b9392505050565b6000602082019050611e3d6000830184611b04565b92915050565b6000602082019050611e586000830184611b13565b92915050565b60006020820190508181036000830152611e7781611b31565b9050919050565b60006020820190508181036000830152611e9781611b71565b9050919050565b60006020820190508181036000830152611eb781611c17565b9050919050565b60006020820190508181036000830152611ed781611c57565b9050919050565b6000604082019050611ef36000830184611cd7565b92915050565b6000604082019050611f0e6000830185611d15565b8181036020830152611f208184611a56565b90509392505050565b6000608082019050611f3e6000830187611d15565b8181036020830152611f508186611a56565b9050611f5f6040830185611a30565b611f6c6060830184611d15565b95945050505050565b6000608082019050611f8a6000830187611d15565b611f976020830186611d15565b611fa46040830185611a30565b8181036060830152611fb68184611acb565b905095945050505050565b600060a082019050611fd66000830188611d15565b611fe36020830187611d15565b8181036040830152611ff58186611a56565b90506120046060830185611a30565b6120116080830184611d15565b9695505050505050565b6000604051905081810181811067ffffffffffffffff8211171561203e57600080fd5b8060405250919050565b600067ffffffffffffffff82111561205f57600080fd5b602082029050602081019050919050565b6000819050602082019050919050565b600081519050919050565b600081519050919050565b6000602082019050919050565b600082825260208201905092915050565b600082825260208201905092915050565b600082825260208201905092915050565b600081905092915050565b60006120ec8261211c565b9050919050565b60008115159050919050565b6000819050919050565b600081905061211782612255565b919050565b600073ffffffffffffffffffffffffffffffffffffffff82169050919050565b6000819050919050565b6000612151826121b2565b9050919050565b60006121638261216a565b9050919050565b60006121758261211c565b9050919050565b60006121878261218e565b9050919050565b60006121998261211c565b9050919050565b60006121ab82612109565b9050919050565b60006121bd826121c4565b9050919050565b60006121cf8261211c565b9050919050565b60005b838110156121f45780820151818401526020810190506121d9565b83811115612203576000848401525b50505050565b600061221482612225565b9050919050565b6000819050919050565b600061223082612248565b9050919050565b6000601f19601f8301169050919050565b60008160601b9050919050565b6002811061225f57fe5b50565b61226b816120e1565b811461227657600080fd5b50565b612282816120f3565b811461228d57600080fd5b50565b6002811061229d57600080fd5b50565b6122a98161213c565b81146122b457600080fd5b5056fea2646970667358221220e81e0af7271bfb0be5a8919d4ea6a1782479bfd70ab2b9aae78baa5f9d7d404e64736f6c63430006060033",
  "immutableReferences": {},
  "source": "pragma solidity ^0.6.6;\r\npragma experimental ABIEncoderV2;\r\n\r\n\r\n\r\n\r\nimport './IPancakeRouter02.sol';\r\nimport './interfaces/IPancakePair.sol';\r\nimport './interfaces/IPancakeFactory.sol';\r\nimport './interfaces/IPancakeERC20.sol';\r\nimport './libraries/SafeMath.sol';\r\nimport './PancakeLibrary.sol';\r\n\r\ncontract Flashloan {\r\n    \r\n  IPancakeRouter02 public bakeryRouter;\r\n  IPancakeRouter02 public pancakeRouter;\r\n  IPancakeFactory public pancakeFactory;\r\n  address PancakeFactory;\r\n  bytes arbdata;\r\n  enum Direction { BakerytoPancake,PancaketoBakery  } \r\n  struct ArbInfo {\r\n        Direction direction;\r\n        uint repayAmount;\r\n          }\r\n         \r\n\r\n  constructor(address _pancakeFactory, address _bakeryRouter, address _pancakeRouter02 ) public {\r\n    pancakeFactory = IPancakeFactory(_pancakeFactory);  \r\n    bakeryRouter = IPancakeRouter02(_bakeryRouter);\r\n    pancakeRouter = IPancakeRouter02(_pancakeRouter02);\r\n    PancakeFactory = _pancakeFactory;\r\n  }\r\n\r\n  function startArbitrage(\r\n    address token0, \r\n    address token1, \r\n    uint amount0, \r\n    uint amount1,\r\n    Direction _direction,\r\n    uint repayAmount\r\n  ) external {\r\n  \r\n\r\n     \r\n    arbdata = abi.encode(ArbInfo({direction: _direction, repayAmount: repayAmount}));\r\n    address pairAddress = IPancakeFactory(pancakeFactory).getPair(token0, token1);\r\n    require(pairAddress != address(0), 'This pool does not exist');\r\n    IPancakePair(pairAddress).swap(\r\n      amount0, \r\n      amount1, \r\n      address(this), \r\n      bytes ('not empty') //not empty bytes param will trigger flashloan\r\n    );\r\n  }\r\n\r\n  function pancakeCall(\r\n    address _sender, \r\n    uint _amount0, \r\n    uint _amount1, \r\n    bytes calldata data\r\n  \r\n  ) external {\r\n    ArbInfo memory arbInfo = abi.decode(arbdata, (ArbInfo));\r\n    uint amountToken = _amount0 == 0 ? _amount1 : _amount0;    \r\n    \r\n    address token0 = IPancakePair(msg.sender).token0();    \r\n    address token1 = IPancakePair(msg.sender).token1();\r\n\r\n    require(\r\n      msg.sender == PancakeLibrary.pairFor(PancakeFactory, token0, token1), \r\n      'Unauthorized'\r\n    ); \r\n    require(_amount0 == 0 || _amount1 == 0); \r\n\r\n    \r\n\r\n    IPancakeERC20 token = IPancakeERC20(_amount0 == 0 ? token1 : token0);   \r\n    \r\n   \r\n    if(arbInfo.direction == Direction.BakerytoPancake) {\r\n          //Buy WBNB on Bakery\r\n          token.approve(address(bakeryRouter), amountToken); \r\n          address[] memory path = new address[](2);\r\n          path[0] = address(token0);\r\n          path[1] = address(token1);\r\n          uint[] memory minOuts = bakeryRouter.getAmountsOut(amountToken, path); \r\n          bakeryRouter.swapExactTokensForETH(\r\n            token.balanceOf(address(this)), \r\n            minOuts[1], \r\n            path, \r\n            address(this), \r\n            now\r\n          );\r\n          \r\n          \r\n\r\n          //Sell WBNB on PancakeSwap\r\n          address[] memory path2 = new address[](2);\r\n          path2[0] = address(token1);\r\n          path2[1] = address(token0);\r\n          uint[] memory minOuts2 = pancakeRouter.getAmountsOut(address(this).balance, path2); \r\n          pancakeRouter.swapExactETHForTokens{value:address(this).balance}(\r\n            minOuts2[1], \r\n            path2, \r\n            address(this), \r\n            now\r\n          );\r\n\r\n    } else {\r\n\r\n        //Buy WBNB on Bakery\r\n          token.approve(address(pancakeRouter), amountToken); \r\n          address[] memory path = new address[](2);\r\n          path[0] = address(token0);\r\n          path[1] = address(token1);\r\n          uint[] memory minOuts = pancakeRouter.getAmountsOut(amountToken, path); \r\n          pancakeRouter.swapExactTokensForETH(\r\n            token.balanceOf(address(this)), \r\n            minOuts[1], \r\n            path, \r\n            address(this), \r\n            now\r\n          );\r\n          \r\n          \r\n\r\n          //Sell WBNB on PancakeSwap\r\n          address[] memory path2 = new address[](2);\r\n          path2[0] = address(token1);\r\n          path2[1] = address(token0);\r\n          uint[] memory minOuts2 = bakeryRouter.getAmountsOut(address(this).balance, path2); \r\n          bakeryRouter.swapExactETHForTokens{value:address(this).balance}(\r\n            minOuts2[1], \r\n            path2, \r\n            address(this), \r\n            now\r\n          );\r\n\r\n    }\r\n      uint profit = token.balanceOf(address(this)) - arbInfo.repayAmount;\r\n      token.transfer(msg.sender, arbInfo.repayAmount);\r\n      token.transfer(tx.origin, profit);\r\n  }\r\n  \r\n}",
  "sourcePath": "C:\\Users\\User\\Documents\\Flash-bots\\bsc-flashloan\\contracts\\Flashloan.sol",
  "compiler": {
    "name": "solc",
    "version": "0.6.6+commit.6c089d02.Emscripten.clang"
  },
  "schemaVersion": "3.4.3",
  "updatedAt": "2021-10-16T08:00:59.770Z",
  "networkType": "ethereum",
  "devdoc": {
    "methods": {}
  },
  "userdoc": {
    "methods": {}
  }
}